:020000041000EA
:1000000000B5324B212058609868022188439860DF
:10001000D860186158612E4B002199600221596106
:100020000121F02299502B49196001219960352056
:1000300000F044F80222904214D00621196600F024
:1000400034F8196E01211966002018661A6600F04E
:100050002CF8196E196E196E052000F02FF8012189
:100060000842F9D1002199601B49196000215960AB
:100070001A491B48016001219960EB211966A021F2
:10008000196600F012F800219960164914480160C1
:100090000121996001BC002800D000471248134993
:1000A000086003C880F30888084703B5996A0420EC
:1000B0000142FBD001200142F8D103BD02B5186610
:1000C0001866FFF7F2FF186E186E02BD00000240BE
:1000D000000000180000070000035F00212200005C
:1000E000F4000018222000A00001001008ED00E03C
:1000F00000000000000000000000000074B24E7A12
:1001000000200420F7010010C3010010C5010010F9
:10011000C1010010C1010010C1010010C101001097
:10012000C1010010C1010010C1010010C701001081
:10013000C1010010C1010010C9010010CB01001065
:10014000CD010010CD010010CD010010CD01001037
:10015000CD010010CD010010CD010010CD01001027
:10016000CD010010CD010010CD010010CD01001017
:10017000CD010010CD010010CD010010CD01001007
:10018000CD010010CD010010CD010010CD010010F7
:10019000CD010010CD010010CD010010CD010010E7
:1001A000CD010010CD010010CD010010CD010010D7
:1001B000CD010010CD010010CD010010CD010010C7
:1001C00000BE00BE00BE00BE00BE00BEEFF3058054
:1001D000103800BEF2EB88716C5C00108C5C001073
:1001E0003402001090A31AE700201F49086006C8D7
:1001F00081F3088810471D48006800282FD10DA4FE
:100200000ECC002902D000F012F8F9E71849194A7B
:10021000002000E001C19142FCD1174988471749ED
:1002200088471749884700BEFDE701C901C29A42C5
:10023000FBD370478C5C0010C00000203408002005
:10024000006400100000042000000420006400107E
:10025000001004200010042000000000704709482E
:1002600003F014F80047000008ED00E0000000D0A3
:1002700038080020740D0020691F00107D03001055
:10028000291F00105756000006005250ABB36053B0
:100290000C55001006005250861C03021C5500101D
:1002A000060052505422A29D2855001005005250BD
:1002B000DE65F46800640010F8B5C04606480749DA
:1002C000091A8B10C90FC91810B5491003D0044B77
:1002D000002B00D0984710BD3408002034080020BF
:1002E00000000000054B10B5002B03D00449054861
:1002F00000E000BFFFF7E2FF10BDC04600000000B5
:10030000300B0020184B001010B504001F2100F026
:10031000C3F900220021200000F0D6F900212000BE
:1003200000F0ECF910BD000070B50303104A12682C
:100330005340E022D20113400E4A136000240025EE
:1003400011E00D4B04221A60094B1B68DB05FBD53D
:10035000074B5B681B041B0CED1896204000002126
:1003600001F010F90134072CEBDDE80880B270BD14
:1003700000C0044000D0044000E00440F0B5C64690
:1003800000B5554CA54403F091FDFA20C00001F0E2
:1003900006F903F0E1FE1A20FFF7B6FF1B20FFF776
:1003A000B3FF4E484E4903F09FFE03210E2000F09C
:1003B00073F903210F2000F06FF9002201210E20B4
:1003C00000F082F9002201210F2000F07DF900F0F9
:1003D000E3F808220021FFA82C3003F0CDFB7F2397
:1003E0006A46404952181370783B6A463E49521893
:1003F0001370FFA82C3000F085F80024002541E0A0
:100400006F2003F0F9FC0134272C03D8B442F7D055
:100410002020F6E7354803F03DFD002403E06F207F
:1004200003F0EAFC0134272C03D8AC42F7D020209B
:10043000F6E72F4803F02EFD8022D20000210AA803
:1004400003F09AFB2B493A00684602F0F1FE2A4974
:10045000424605A802F0ECFE6B46002200210AA8E5
:1004600000F004F905AB0A2200210AA800F0FEF80A
:10047000FFA92C310AA800F0A5F844463D006420ED
:1004800001F08DF80020FFF74FFF80460120FFF7B5
:100490004BFF0700431BDA179B1853400F2B06DC5A
:1004A00043461B1BDA179B1853400F2BE7DDB800A0
:1004B000C019C000114902F015FF0600434698001C
:1004C0004044C0000D4902F00DFF05000C4803F048
:1004D000E1FC002498E7C046D0FBFFFFD0020020DB
:1004E000801A0600290400002B040000204B001095
:1004F000284B0010304B0010384B0010FF0F00004D
:10050000184B001042780378D21A0132C3788178F0
:100510005B1A0133534343607047000000B585B058
:1005200080236A46137350730448002300930233F8
:1005300003AA3C2103F004FE05B000BDD002002058
:1005400070B506000D00002403E0305DFFF7E6FF04
:100550000134AC42F9DB70BDF0B583B006000D008C
:100560004F1C380003F0F2FA0400402303700130FE
:100570002A00310003F006FB0648002300933B00ED
:1005800022003C2103F0DCFD200003F0E9FA03B077
:10059000F0BDC046D002002070B588B001A8084A5E
:1005A0001300060032CB32C61A00330032CA32C3FF
:1005B00012881A801A21FFF7C3FF08B070BDC04629
:1005C000C456001030B583B005000C0021236A46E4
:1005D00013700B7853704B7893702223D3708B7801
:1005E0001371CB78537106216846FFF7A9FF616844
:1005F0002800FFF7B1FF03B030BD000030B5782907
:100600002EDC382A2CDCD51707242C40A218D21057
:10061000144CE55C03242C40022C0DD0DCB22500E8
:10062000413DEDB2192D09D9303CE4B2092C0CD86A
:10063000FF251D40153D04E0203BEFE7FF251D4051
:10064000403DD2015118002208E00025F9E7EB00F7
:100650009B18054CE35C435401320131072AF6DD57
:1006600030BDC046695B00109C550010F8B507000E
:100670000C0016001D0078290DDC382A08DD0AE080
:100680000135320021003800FFF7B8FF083424B2EA
:100690002B78002BF4D1F8BD10B58300084A94469E
:1006A00063441A684024624080341440802252011E
:1006B00013431C60C000034B9C466044416010BD66
:1006C00004C001400040014080000B4B9C46604448
:1006D00000290DD00823002A0CD0042213430268FD
:1006E00053400C221A4080235B0103431A60704779
:1006F0000023F0E70022F1E704C00140002909D0FF
:100700008000094B9C46604480239B0103434022A8
:100710001A6070478000044B9C466044C0239B01D4
:10072000034340221A60F4E704C00140034B1B68F6
:1007300002201840431E9841C0B2704700C00640D6
:10074000EFF3108072B6034B1B68002BFBD0BFF396
:100750005F8F70472C0100D0BFF35F8F024B0022E8
:100760001A6080F3108870472C0100D0F8B506009D
:100770000C001500FFF7E4FFE308F718F15C07220F
:100780002240012393400B4205D1DBB20B433B7067
:10079000FFF7E2FFF8BD2100280001F061FC000036
:1007A000002307E0054A9A189200BFF35F8F0021EB
:1007B000116001331F2BF5D97047C046400000344B
:1007C000054A1078431CDBB21370172B02D91300B3
:1007D00010221A707047C04638020020074B9B68F1
:1007E000103080001950BFF35F8FBFF35F8F044B51
:1007F0000021196082F310887047C04600ED00E0C8
:10080000240100D010B50388DA0A1C2A05D15B0543
:100810005B1502335B00C01810BD034B034A04484C
:10082000B12101F085FBC046404B00103457001049
:10083000584B001010B5091A0B1F0A4A88180A4AAB
:10084000904208D8C90706D45B105B055B0D0748CA
:10085000184380B210BD064B064A0748A32101F099
:1008600067FBC046FC070000FE0F000000E0FFFF32
:10087000A04B001028570010584B001010B5091A53
:1008800004394A08090B08D14905490D064B0B43A9
:100890000380064B1343438010BD054B054A0648B1
:1008A000AB2101F045FBC04600F0FFFF00F8FFFF61
:1008B000D04B0010FC560010584B00100123834011
:1008C000034A10681840431E9841C0B27047C046A2
:1008D00000E100E0002904D0034B1860034B1860CE
:1008E0007047034B1860FBE780E200E000E100E0A6
:1008F00080E100E010B5012383401800FFF7EAFF14
:1009000010BD0000024B9B6810308000C05870473B
:1009100000ED00E070B504000D00EFF3108672B634
:100920000C4B1B68002BFBD0BFF35F8F2000FFF741
:10093000E9FF094B984201D0A84205D132002900B5
:100940002000FFF74BFF70BD044B054A0548862188
:1009500001F0EEFA240100D0CD010010E04B0010B0
:1009600044570010584B0010F0B5CE46474680B5AE
:1009700083B006000D00EFF3108872B64F4B1B6872
:10098000002BFBD0BFF35F8F4D4B9A6834001034BF
:10099000A300D7584B4B9F4207D0AF4200D18BE00A
:1009A0000197494BFB1A2F2B09D9424639003000D9
:1009B000FFF714FF03B0C0BCB946B046F0BD30002D
:1009C000FFF77CFF814600213000FFF793FFBFF364
:1009D0005F8FEFF30581002901D08C4211D10123F3
:1009E000019C9C430020A368AB4212D00622A25671
:1009F000002A0DDB53009B189B00334A2000D418BB
:100A0000F1E7324B324A36213248FF3101F090FA99
:100A10002000AB4249D106256557002D2BDB2A4B20
:100A20006A00521992009B189A68A260DA79E27102
:100A30009B795BB2A371002B0FDA2748A080224B71
:100A40006A00521992009B18244A11789971157006
:100A500049463000FFF74EFFA7E7680040198000C5
:100A6000194BC0180430FFF7CDFE0100231D1800FC
:100A7000FFF7E0FEE2E7002912D100280ED0FF23A5
:100A80008371174B838015490B78A3710E4A154B60
:100A9000A41A644163431B0D0B70D9E7094FF2E7B9
:100AA0001149201DFFF7EAFED2E7104B084A6A21E0
:100AB0000848FF3101F03CFA024F76E7240100D0EC
:100AC00000ED00E0CD0100103C020020184C0010A9
:100AD00014570010584B001001BD0000710D00208C
:100AE00001BDFFFFAAAA0000760200204C4C0010B6
:100AF00070B5012202432E4BD31A2F2B28D8EFF3C7
:100B00000583002B2BD0EFF3108C72B629490968AE
:100B10000029FBD0BFF35F8F254C274905002D1B13
:100B20006D416943090D4CB2244989689B00C9583D
:100B300091421BD00021032932D81D4B4A00521884
:100B400092009B189B795BB2A3421FD00131F2E760
:100B50001B4B1C4AC7211C48490001F0E9F91B4BFB
:100B6000184A92211848FF3101F0E2F9134A9268BD
:100B70001749D150174B1A7882711C70BFF35F8FE1
:100B80000C4B00221A608CF3108870BD084B4A0091
:100B90005518AD005D19FF26AE710F4AAA80E9E72E
:100BA0000E4B084AD1210848490001F0C1F9C0465E
:100BB0003C020020240100D0AAAA000000ED00E0C1
:100BC000544C0010E0560010584B00107C4C0010A4
:100BD000CD010010710D002001BDFFFF884C0010F9
:100BE0000022044B02E0044902C30132072AFAD969
:100BF0007047C04600E400E080808080024B9C4645
:100C000061448900016070474000003410B5040061
:100C1000FFF7D6FD01002000FFF7F0FFFF2323714F
:100C2000BFF35F8F10BD10B50400FFF7C9FD0100D1
:100C30002000FFF7E3FFFF23237100236371BFF35D
:100C40005F8F10BD084B5B6A994209D8064A926AC9
:100C5000824207D2994201D0012002E0002000E048
:100C6000002070470120FCE70040054010B5002936
:100C70000AD003681B7B8B4206D38068054B9C46D9
:100C800061440901401810BD034B044A04483C214B
:100C900001F04EF9FFFFFF0F244D001054580010D3
:100CA000484D0010F8B504001700FFF7DFFF066895
:100CB000456839002000FFF7D9FF0268436801202A
:100CC000AB4201D802D00020C0B2F8BDB242FBD87E
:100CD000F9E7000010B5002B02DB0260436010BD95
:100CE000024B034A03483F2101F022F9884D0010CE
:100CF00020580010A44D001010B582B004000498D4
:100D0000059912184B41002B09DB6846FFF7E2FFFB
:100D1000009A019B22606360200002B010BD012296
:100D20005242014BF1E7C046FFFFFF7F10B500299B
:100D300008D0037B8B4205D300684B005B18033B54
:100D4000C01810BD024B034A0348682101F0F0F8B7
:100D5000F44D0010FC570010104E001010B5437BEE
:100D60008B4201D1012010BDFFF7E0FF8378002BFB
:100D700001D10020F7E70120F5E770B50400857B7D
:100D8000002D01D1280070BD2900FFF7CFFF437867
:100D9000A373002B00D1E3730023837043700370AF
:100DA000F0E70000F8B506000C001500FFF7BEFFE5
:100DB0000700002C0DD0002D11D0AC4215D0290019
:100DC0003000FFF7B3FF84703B78002B13D13D70E8
:100DD000F8BD0A4B0A4A0B486F2101F0A9F80A4BEB
:100DE000074A0848702101F0A3F8084B044A054857
:100DF000712101F09DF843703D70E9E7644E0010E9
:100E0000D8570010104E0010704E00107C4E00108D
:100E100070B506000D001400002914D0002A14D06B
:100E2000436880689847002806D0220029003000D7
:100E3000FFF7B8FF280007E02A0021003000FFF785
:100E4000B1FF200000E0100070BD0800FCE70000CA
:100E500070B504000D1E0CD0FFF768FF00238370EF
:100E600043700370617B2A002000FFF7D1FF60739D
:100E700070BD034B034A0448A52101F059F8C04650
:100E8000944E0010EC570010104E001070B5040086
:100E90000D1E0FD0FFF762FF00280BD1E17B002968
:100EA0000ED1A37B002B03D1E37B002B0DD1A573C7
:100EB000E57370BD084B094A0948F62101F038F87E
:100EC0002000FFF733FF4570EBE7064B034A044869
:100ED000FB2101F02DF8C046984E0010C8570010B5
:100EE000104E0010BC4E001010B5002907D003684A
:100EF0001B7B8B4203D3C0680139401810BD034BE4
:100F0000034A0448412101F013F8C046244D001063
:100F1000B4570010484D001070B505000C000800D3
:100F200000F098FC0949200000F0D8FBFFF748FCCE
:100F3000074B9C466044800068602C75D0231B06DC
:100F40001B786B75034BA400E55070BD6510001055
:100F500040000034480B00200A4B1A68EFF3108160
:100F600072B61368002BFCD0BFF35F8F054B1B6874
:100F7000BFF35F8F00221A6081F3108840BF00200A
:100F8000002170475C0D002010B582B0040000F015
:100F900085FB02000B006846FFF79CFE009A019B50
:100FA00022606360200002B010BD70B584B0040000
:100FB00016001D0002A8FFF7E7FF029A039B0096A8
:100FC00001952000FFF798FE200004B070BD0000DE
:100FD000F0B583B0070001921D000AAB1C780BAB83
:100FE0001E78002C0BD000682100FFF7B7FE002808
:100FF00009D0194B194A1A48672100F099FF006877
:10100000FFF7BBFE0400002C02D1200003B0F0BDAE
:1010100021003800FFF72AFE019B03604560089B12
:101020008360099BC36038682100FFF711FFA0426D
:10103000EBD1387D019A2B0000F098FB051E01D002
:10104000002E04D00C9B002BDFD01D70DDE738682C
:10105000210000F045FDF5E7D04E001008580010C3
:10106000484D0010F0B5DE4657464E464546E0B5C1
:101070008FB00B900021794B8200D458894683E0D1
:1010800029002000FFF7F2FD804602684368921BAA
:10109000BB41002B09DD43461A685B680B9800F0E2
:1010A00065FB0023984600268AE0002B01D1002A28
:1010B000F1D10021584600F009FD0700A84215D1E2
:1010C00043461A685B680892099343469E68DB684A
:1010D0009846002E10D029002000FFF705FF037866
:1010E00099461B021F432761002069E05C4B5D4A63
:1010F0005D488E2100F01CFF5C4B5A4A5A489221F1
:1011000000F016FF2369002B00D177E0BB4219D114
:1011100006980799002342428B4100920193089A56
:10112000099B0CA8FFF7E8FD0C9A0D9B0021049188
:101130000131039102954146019100962000FFF78D
:1011400047FF16E04A4B474A4748A12100F0F0FE0E
:10115000069A079B002B01D1002A52D12068290052
:10116000FFF794FE29002000FFF7BEFE037801334D
:101170000370002323616268BFF35F8F13608AF3FB
:1011800010880120002861D00CA8FFF7FDFE0C9EFE
:101190000D9F00220023089209936268EFF3108AE2
:1011A00072B61368002BFCD0BFF35F8F23689B4699
:1011B0005D7B002D00D063E70023984600260020C9
:1011C0006368BFF35F8F00221A608AF31088002ED5
:1011D000D8D04B461F022F4341463800B0470690F7
:1011E00007916268EFF3108A72B61368002BFCD087
:1011F000BFF35F8F079B002B00DA83E7079B002B71
:10120000A6DD2369002BA9D0BB4219D10CA8FFF79A
:10121000BBFE0C9A0D9B06980799009001910CA8B3
:10122000FFF76AFD0C9A0D9B002104910131039197
:1012300002954146019100962000FFF7C9FE98E70C
:101240000B4B084A0848A42100F072FE0FB0F0BC16
:10125000BB46B246A946A046F0BDC046480B00209A
:10126000F84E001038580010484D0010104F001074
:101270001C4F001010B50C4B5B68002B04D00B48C2
:101280000A21FFF7BBFC10BD074C094A2068230068
:10129000102100F086FB032000F0F4F90321200068
:1012A000FFF73AFEEBE7C046840200205C0D002009
:1012B000A50C001010B5064B5B68002B01D004484C
:1012C00010BD044B044A05485E2100F031FEC046C3
:1012D00084020020584F00109C570010484D001009
:1012E000F0B5DE4657464E464546E0B58DB00600A1
:1012F00090461F00169B9A46179B994618AB1B7881
:101300000793272302AA9446634400221A7021E01F
:1013100001003000FFF7E8FD00783CE00698002B64
:101320005CD0079B002B59D04946D04704000D00E4
:1013300003000B4359D0002940DB08A8FFF724FE27
:10134000089A099B0094019508A8FFF7D5FC089B13
:101350009846099F7268EFF3108B72B61368594272
:101360004B41D9B20691002BF8D1BFF35F8F2733E1
:1013700002AA9446634404930023039302934B46CA
:1013800001935346009342463B003000FFF720FE96
:101390000400051EBCD17368BFF35F8F0021196084
:1013A0008BF31088002D17D0272302AA944663449C
:1013B0001B78002BB2D100022043B0E70023624229
:1013C000AB410092019342463B0008A8FFF794FC12
:1013D000089B9846099FBDE7012040420DB0F0BC34
:1013E000BB46B246A946A046F0BD0698F6E7F0B562
:1013F000C64600B584B00500884616001F000AAB3B
:101400001C78FFF757FF0294019700962A00434685
:10141000FFF766FF04B080BCB846F0BDF0B5C64625
:1014200000B505000C1E42D04268EFF3108772B67B
:101430001368002BFCD0BFF35F8FE6B22B68984691
:1014400031001800FFF78AFC00282AD02B69A3423C
:1014500013D0240AE4B231002800FFF745FD0378D9
:10146000A34211D000206B68BFF35F8F00221A6087
:1014700087F3108880BCB846F0BD0E4B0E4A2C2175
:101480000E48FF3100F054FD3100404600F028FBCB
:101490000028E8D10A4B084A99210848490000F081
:1014A00047FD2B69A342DED100232B61DBE700203F
:1014B000E0E7C0467C4F001084570010484D0010F4
:1014C000A04F001010B50400FFF7F4FE2100FFF755
:1014D000A5FF10BD30B587B004000D00EFF3058304
:1014E000002B20D106225242D31712196B418B4296
:1014F00002D803D1824201D90022002304A8FFF7B9
:10150000E9FB02A8FFF740FD02980399049A059BA6
:10151000121A8B41002B0BDC08D02000290000F0B0
:10152000C9F807B030BD144800F09AFD002AF4D085
:10153000124A0498059900230093FFF758FF0028EA
:1015400013DAEAE70E4B1A68EFF3108172B61368EC
:10155000002BFCD0BFF35F8F094B1B68BFF35F8F7D
:1015600000221A6081F3108820BF04980599FFF7C4
:1015700069FB0028E6D0D0E7A44F0010590F0010F7
:101580005C0D002000B583B002000B006846FFF739
:101590000CFD00980199FFF79DFF03B000BD10B549
:1015A000FA2292000023002102F05CFAFFF7EAFF22
:1015B00010BD000030B583B005000C00EFF30583CB
:1015C000002B0FD10B4A00230093FFF710FF0028D8
:1015D0000BDD20BFFFF776FF28002100FFF732FB6D
:1015E00003B030BDFFF72EFBFAE728002100FFF71C
:1015F00029FBF5E7590F001070B5EFF3058010389F
:10160000EFF3108C72B6194B1B68002BFBD0BFF3A5
:101610005F8F01221300834015494B6315490B600E
:10162000154909780C00C440224213D0104A546A6C
:10163000124A8500AA58944205D3114AAA580E4C62
:101640009943217007E00A4A031D9B00995899505D
:10165000002200E00022BFF35F8F044B00211960DD
:101660008CF31088002A00D0904770BD280100D06C
:10167000004005403C700540720D0020600D0020C8
:10168000A80A002010B50100024A034B1800FFF71A
:101690006DF810BDF44F0010700D0020044B5B6A14
:1016A000034A906A1900536A9942F9D17047C046BB
:1016B00000400540084B5B6A01E0074B5B6A8B42C8
:1016C000FBD301E0044B5B6A8B4203D1024B9B6A64
:1016D0008342F7D37047C0460040054070B5040010
:1016E0000E00EFF3108572B61B4B1B68002BFBD06E
:1016F000BFF35F8F002E1CD02000FFF703F9174BBC
:1017000083420BD019002000FFF704F901212000CB
:10171000FFF7F0F80123A340114A1360114BA40016
:10172000E650BFF35F8F0C4B00221A6085F31088E0
:1017300070BD0C4BA2000021D1500122A2400A49E9
:101740000B7893430B7005492000FFF70DF900213A
:101750002000FFF7CFF8E4E7280100D0F9150010CA
:1017600038600540A80A0020720D0020F0B5DE4662
:1017700000B584B00400150001921E000293FFF72B
:101780008DFF03958E4202D84ED185424CD9EFF39E
:10179000108B72B6274B1B68002BFBD0BFF35F8FFB
:1017A000254A17780125A540EBB23B431370234B24
:1017B0005D63221D92000199D150214AA100029837
:1017C00088501B6A2B4212D11C4B1B6C2B4208D039
:1017D0000020BFF35F8F174B00221A608BF3108835
:1017E00023E0184B184A1948C52100F0A1FBFFF768
:1017F00055FF8E4214D802D1039B834210D80E4B62
:101800001B78BB420ED00D4B1D625D631F22224030
:10181000012393400E4A1360074B1F700120D8E745
:101820000020D6E70120D4E7012004B080BCBB46ED
:10183000F0BDC046280100D0720D002000400540D8
:10184000600D002018500010605800103C5000102F
:1018500080E200E0EFF3108C72B60B4B1B68002B9C
:10186000FBD0BFF35F8F01238340084A136208490E
:101870000A789A430A70BFF35F8F034B00221A6005
:101880008CF310887047C046280100D00040054006
:10189000720D002010B5002908D0037B8B4205D3C0
:1018A00000684B005B18033BC01810BD024B034A95
:1018B0000348682100F03CFBF44D0010BC580010B8
:1018C000104E0010F8B506000C001500FFF7E2FFFF
:1018D0000700002C0DD0002D11D0AC4215D02900EE
:1018E0003000FFF7D7FF84703B78002B13D13D7099
:1018F000F8BD0A4B0A4A0B486F2100F019FB0A4B4E
:10190000074A0848702100F013FB084B044A0548B9
:10191000712100F00DFB43703D70E9E7644E00104B
:10192000A8580010104E0010704E00107C4E001091
:1019300070B506000D001400002914D0002A14D040
:10194000436880689847002806D0220029003000AC
:10195000FFF7B8FF280007E02A0021003000FFF75A
:10196000B1FF200000E0100070BD0800FCE770B57A
:1019700005000023437301338373037BC373012486
:1019800006E021002800FFF785FF0134E4B244702F
:10199000297BA142F5D82800FFF77CFF0023437084
:1019A00070BD10B5017342608360FFF7E0FF10BDAA
:1019B000F0B5C64600B505000C1E03D1200080BC62
:1019C000B846F0BDFFF766FF4678002EF6D031002E
:1019D0002800FFF75FFF47780023984643702100F7
:1019E0002800FFF757FF43464370320021002800CC
:1019F000FFF79EFF040039002800FFF7D9FF02001F
:101A000021002800FFF794FF0400D7E7F0B5C64691
:101A100000B504000D001700002927D0FFF73AFF9A
:101A20004378002B28D18378002B2BD1017820001C
:101A3000FFF7BEFF06008046002F0AD0E17B002999
:101A400026D1A37B002B03D1E37B002B25D1A573EB
:101A5000E5734346002B26D129002000FFF71AFF2B
:101A600000234370300080BCB846F0BD114B124AD1
:101A70001248382100F05CFA114B0F4A0F483A2106
:101A800000F056FA0F4B0C4A0C483B2100F050FA7C
:101A90002000FFF7FFFE4570D3E70B4B064A0748CF
:101AA000422100F045FA31002000FFF7F3FE002349
:101AB0008370D1E7885000109458001090500010A7
:101AC000D0500010F8500010BC4E001070B504004B
:101AD0000A00457B2900FFF799FF6073280070BD5D
:101AE00070B506000C1E40D0437B8B4207D0FFF739
:101AF000D1FE05008178002906D1002036E00121C1
:101B0000FFF7E4FF012031E03000FFF7C3FE01786A
:101B1000A1420DD03000FFF7BDFE4178A1420AD0AE
:101B20000029F7D1124B134A13486B3100F000FA29
:101B30006B78037001E06B7843700023AB706B70BF
:101B4000012221003000FFF761FF0200717B81421A
:101B500005D03000FFF7ECFE7073012006E0074B64
:101B6000044A0548712100F0E3F9002070BDC04629
:101B7000884C00107C580010905000101C51001030
:101B8000F8B5DE4657464E464546E0B506000F001E
:101B900015000A9A934250D31A0E92461B02984699
:101BA0000A9A00234046514601F002FC8146740027
:101BB000A419A4002F4B9C4664446368834200D25E
:101BC0006060331FDBB29B46012B3CD9C0239B01D5
:101BD0002343802212011A60274BB200D1580029FA
:101BE00007D0586901F0A6FB013043001B18033BE6
:101BF000FDD26D0123685D40E0222A4080235B0115
:101C000023431A605A46012A28D980239B01234383
:101C1000802212011A604B4663604A460023404608
:101C2000514601F0C5FB144BB60098510120F0BCA1
:101C3000BB46B246A946A046F8BD104B104A114813
:101C4000332100F075F9012FC0D1C0239B0123433C
:101C500003221A60A368DB07FCD5CAE72168794034
:101C600003220A401A60A3680125BD401D42FAD034
:101C7000CBE7C04600800040B80A00203C5100106D
:101C8000C85800105051001030B583B00C2000F03F
:101C900011F9FEF74BFD00280DD0002304E02E4A79
:101CA00099002E4888500133092BF8D92A4B2C4A29
:101CB0005A6203B030BD2B4B00229A6700F002F944
:101CC000294B01221A60274B5B6C012BFBD1274B60
:101CD00003221A60234B9B6B012BFBD10133009332
:101CE0000433234A0121234800F054F805230093CC
:101CF000214A0121214800F04DF8214B0093002298
:101D000002210420FFF73CFF1E4D00952B0000220E
:101D100001210520FFF734FF104C0094230000221E
:101D200000210720FFF72CFF009423000022002150
:101D30000820FFF725FF0A4B009323000022002113
:101D40000920FFF71DFF00952B000022002106202F
:101D5000FFF716FFADE7C046B80A0020006CDC02B2
:101D60001BB70000008000403CB0004030B0004095
:101D7000002F685900800240008C864700C0024056
:101D8000001BB70040597307014B8000C0587047D3
:101D9000B80A0020F0B5C64600B504000E001700D2
:101DA0001D00374801F0C6FA8046364BFA18364B0C
:101DB0009A4239D80100380001F0BCFA0200103A0A
:101DC00098235B009A4235D86B1E062B38D8069BA9
:101DD000013B062B34D83F09474537D32D04069BDA
:101DE0001B031D432368002B36DB284B9C4244D049
:101DF00080235B01264A1360264A1360264A9268B4
:101E000019009143FAD12660A060221DC0239B01D6
:101E1000134321221A602268002AFCDAE5600822B6
:101E20001A6080BCB846F0BD1C4B1D4A1D481121EC
:101E300000F07EF81C4B1A4A1A48192100F078F875
:101E40001A4B174A17481C2100F072F8184B144A15
:101E50001448232100F06CF822683F231340B3425A
:101E6000C3D1A3681B051B0D8342BED1E368EE22DC
:101E7000D2021340AB42B8D1D3E780239B01B9E72C
:101E8000001BB70080E84BD380F8A93200C00240A5
:101E900000E0004000F0004000C000409C510010F5
:101EA000D8580010FC51001044520010605200102D
:101EB000AC52001080239B000343014AD362704759
:101EC00000800540064BAA2212011A602F22DA6018
:101ED000044B054A1A60024B5B68002BFBDA704723
:101EE000004002400060024000B0FA0000BEFDE782
:101EF00003000A4A1268002A08D0084A1068C3186A
:101F0000074A9A4206D3054A13607047034A0549B7
:101F10001160F2E701204042F7E7C0462C0B002099
:101F200000000420740D002010B5FFF7DFFF000053
:101F300030B583B00D001900002A0BD0074B084CB8
:101F4000019200932B000200200001F0A3FF01206A
:101F5000FFF7CCFF034B1A00F1E7C046C852001050
:101F6000D8520010D452001070B52B4B2B4A1A6077
:101F70002B4B2C4A1A602C4B9A682A4B9343FAD16C
:101F80002A4C01E008CC9847294B9C42FAD3FFF732
:101F90007BFE234B274A1A60234B9B68DB43DB0104
:101FA000FAD1254B40229A675A671A67DA66234CA2
:101FB00009E0234B234A24488721FFF7B9FF20007B
:101FC000FEF724FE0834214B9C4209D22368002BE3
:101FD000F5D0012BEDD12000FEF725FE0834F2E705
:101FE0001B4DA9681B4CC022200001F0CBFDAC604A
:101FF000EFF30583002B00D000BEFEF7D1FBFEF708
:10200000EFFDFFF737F9144C01E008CC9847134B6C
:102010009C42FAD370BDC04600E00040BFCDFBFE3D
:1020200000F00040FE7F3C0000C00040200800207F
:1020300030080020FFFFFF0100F0014018080020D9
:1020400008530010E4580010285300102008002006
:1020500000ED00E0000000203008002034080020DF
:102060000FB400B583B0084801F0E4FE049B002BD8
:1020700007D005A90191180001F0ECFE034801F01A
:10208000D9FE0120FFF732FF745300108453001073
:102090009A4200D288547047704710B5002802D089
:1020A0000B684968984710BD0100002007E08300D5
:1020B0001B185B00501C08601078C01830380A6884
:1020C0001378303BDBB2092BF1D97047F0B5DE460F
:1020D00057464E464546E0B583B093461F000C9BDD
:1020E0009A460D9C0E9B99460F9B9B0703D0B846C2
:1020F0000F00060022E00192A34688464E46B946EC
:102100000700B44207D2551C4B4641462020B84731
:1021100001342A00F5E73D004F465C46019B9B4693
:10212000B1464646B84637002E0007E0013C551C34
:102130005346185D43463900B0472A00002CF5D1BC
:1021400035003E0047460F9B9B0707D4100003B0A5
:10215000F0BCBB46B246A946A046F0BDB0464E46CE
:10216000B9462F005D46531BB342EFD2541C4B4679
:1021700041462020B8472200F5E7F0B5CE46474655
:1021800080B585B0944698460C9D0D9C0EAB1B788F
:102190009946109A119B129EB7071CD4002B0CD0A5
:1021A000F7070AD54F46002F02D10C37374204D02B
:1021B000013B02E030272F550134944201D21F2CFD
:1021C000F8D9F70707D59C4205D21F2C03D8302732
:1021D0002F550134F5E7F70612D5770505D4002C05
:1021E00003D0944221D09C421FD00F9A102A32D0A3
:1021F0000F9A022A37D01F2C0AD830222A550134D0
:102200001F2C05D84A46002A33D02D222A550134E6
:10221000039602930194009543466246FFF756FFEA
:1022200005B0C0BCB946B046F0BD621E012C10D04E
:102230000F9F102F0BD014000F9A102AD8D1B2067E
:10224000D6D51F2CD4D858222A550134D3E7023CC6
:10225000CBE71400C9E7B206EED41F2CECD87822E5
:102260002A550134C7E71F2CD2D860322A550134D1
:10227000C1E7720703D52B222A550134C8E732077C
:10228000C6D520222A550134C2E7F0B5DE465746AE
:102290004E464546E0B593B081468A46089209937A
:1022A0001CAB10CB1B789B461E9D219B9846002C97
:1022B00003D1102342469A4390468023DB004646D2
:1022C0001E4042461A4212D0002C22D000260EE0B8
:1022D0003033D9B2771C0AAB99552900200001F0A0
:1022E00029F8AC4216D31F2F14D83E000400290051
:1022F000200001F01FF8CBB2092BE9D94246920623
:1023000005D54121C918C9B20A39C9B2E2E761212C
:10231000F8E7270043460693209B05931F9B0493F1
:1023200003955B46029301970AAB0093099B089AB9
:1023300051464846FFF721FF13B0F0BCBB46B246FA
:10234000A946A046F0BDF0B5DE4657464E46454686
:10235000E0B597B00A900B910C929A46209B994653
:10236000219F22AA13789B46249B0993259C289B96
:1023700098464A463A4302D1103293439846802207
:10238000D20045461540434613420AD04A463A43D6
:1023900041D000252E0053460D934D46099B9A4689
:1023A0001BE02E0053460D934D46099B9A4614E0C0
:1023B0003033DAB2731C99460EAB9A55524623005D
:1023C0002800390000F0F4FFBC4226D819D04B4653
:1023D0001F2B1CD84E4605000F0052462300280034
:1023E000390000F0E5FFD3B2092BE1D9424692064D
:1023F00005D54122D218D2B20A3AD2B2DAE7612226
:10240000F8E7AA45E3D94E460D9B9A4608E04E46AA
:102410000D9B9A4604E0002602E04E460D9B9A462C
:1024200043460693279B0593269B0493099B03939E
:102430005B46029301960EAB009353460C9A0B99A0
:102440000A98FFF79AFE17B0F0BCBB46B246A94601
:10245000A046F0BDF0B5DE4657464E464546E0B5CF
:1024600091B0804689460C929A461A9C1B9D220088
:102470002B002000290001F016FA002800D0ECE023
:1024800001225242D44B2000290001F007FA002813
:1024900000D0E2E001225242D04B2000290001F09E
:1024A000E7F9002800D0D8E000220023200029000E
:1024B00001F0DEF9002800D0E4E0069407958023BF
:1024C000DB001E9A1A400D921E9A1A4201D1062371
:1024D0001C930698079902000B00089209930300C9
:1024E0000A00024300D1D9E0080D4005400DBC4E62
:1024F000B44660440A03120B1E00BA4B13431F007C
:1025000001F0E4F9B84AB94B01F073F9B84AB94B94
:1025100001F050F9089009910022B74B30003900C2
:1025200001F043F9B54AB64B01F063F902000B0024
:102530000898099901F03EF901F0E0F9834601F0AD
:10254000C5F906000F00AF4AAF4B01F052F9002267
:10255000AE4B01F02FF901F0D1F90890AC4AAD4B28
:102560003000390001F045F906000F00089801F02D
:10257000ADF9A94AA94B01F03CF902000B0030006B
:10258000390001F012F906000F0002000B0001F003
:1025900030F90A900B91089BA14A944663440021AC
:1025A0000022089109921B05099300230893320029
:1025B0003B003000390001F0FDF80E900F91320021
:1025C0003B0000208021C90501F0EFF806000F0054
:1025D0000022944B0A980B9901F0F1F80022924BDB
:1025E00001F0E8F802000B000A980B9901F0E7F8F7
:1025F00000228E4B01F0DEF802000B000A980B99C6
:1026000001F0DDF802000B003000390001F0D2F8D3
:1026100002000B000E980F9901F0D1F80022714BC7
:1026200001F0C8F8089A099B01F0E3F806000F00D2
:1026300008960997069A079B01F030F900282FD0D9
:1026400001235B429C46E3440022774B3000390073
:1026500001F0B5F80890099122E01E9B04931D9BA0
:1026600003931C9B02930094019553460C9A494690
:10267000404600F0FFF811B0F0BCBB46B246A94698
:10268000A046F0BD00210022069107920694802307
:102690001B069C46AC446346079310E700239B4609
:1026A0005B466333C62B20D804261E9B1B0528D50A
:1026B000089A099B190011430FD05D4A5D4B06989B
:1026C000079901F0E3F800287AD000225A4B0698C7
:1026D000079901F0CDF8002872D01C9B5B4506DD00
:1026E0005A469B1A013B1C9303E00526DDE70023B5
:1026F0001C938023DB001E9A1A431E92002600239F
:102700009B461D9B9E4265D29F1B02231E9A1A4028
:102710000A921E9A134202D0002E00D000275B4678
:10272000002B07D0089A099B0698079901F047F8F3
:1027300006900791002200232000290001F098F85C
:10274000002800D07CE03D4B1E9A13400493039771
:102750001C9B0293069B079C0093019453460C9A82
:102760004946404600F086F8002E00D183E71E9BC4
:102770009B0671D54525441C534602004946280056
:10278000C0475A46D317D2185A4005230593013E35
:102790000496002303930A3302935B46DB0F0193F5
:1027A00000925346220049464046FFF76EFD0A9BC1
:1027B000002B00D15FE7020047460C9E1D9D53E0B1
:1027C0001C9B002B9DD00D9B002B9AD01C9B013B8A
:1027D0001C9396E7002798E7FFFFEF7FFFFFEFFFCF
:1027E00001FCFFFF0000F03FFB799F501344D33FF3
:1027F000B3C8608B288AC63F0000F83F61436F630F
:10280000A787D23F71A379094F930A400000E03FA8
:102810001655B5BBB16B0240EF39FAFE422EE63FCA
:10282000FF03000000002C4000002440000018407E
:102830002D431CEBE2361A3F80842E41FFF7FFFF49
:10284000069C079D220029008020000684466144E2
:102850000B000692079376E765258CE7541C5346D8
:1028600049462020B8472200931BAB42F6D3100004
:1028700001E7C046F0B5DE4657464E464546E0B550
:1028800095B00690079193469946209F1E9A1F9BEC
:102890001000190001F007F8002831D1012252423E
:1028A000BF4B1E981F9900F0E3FF002837D101228B
:1028B0005242BC4B1E981F9900F0F0FF00283DD1FA
:1028C0000022B94B1E981F9900F0E8FF002850D154
:1028D0000022B64B1E981F9900F0CAFF002848D16D
:1028E000002200231E981F9900F0C2FF002850D13B
:1028F00000239846229B5B0500D4B6E0002458E0F4
:10290000229B0393219B029303230193A84B0093E3
:102910004B465A4607990698FFF7D8FB0EE1229BD3
:102920000393219B029304230193A24B00934B46F4
:102930005A4607990698FFF7C9FBFFE00423229A3D
:102940001A4022990B4210D09B4B002A0FD0042230
:102950002299039121990291019200934B465A4684
:1029600007990698FFF7B2FBE8E0944BEDE70322E6
:10297000EEE7229B0493219B039302971E9B1F9CCF
:10298000009301944B465A4607990698FFF762FD5B
:10299000D4E01E9A1F9B0020002100F006FF1E902D
:1029A0001F9101239846A5E70CAB30221A55013F31
:1029B00001341F2C01D8092FF6D81E981F9900F05A
:1029C0009DFF050000F082FF02000B001E981F997A
:1029D00000F0EBFE7A4BFA009B181A685B680A92CB
:1029E0000B9300F006FF0890099100F0ABFF060082
:1029F00000F068FF02000B000898099900F0D5FE6E
:102A00000890099100226F4B00F048FF00282ED05B
:102A10000136300000F056FF02000B000A980B99B7
:102A200000F02CFF002801D001350026002F2CD10A
:102A3000280000F04BFF02000B001E981F9900F0C9
:102A4000B4FE06000F0000225E4B00F011FF0028CC
:102A500046D100225B4B3000390000F01FFF0028F8
:102A60003ED1EB073CD501353AE0062746E7002288
:102A7000544B0898099900F0FBFE0028D6D1002E8F
:102A800001D0F307D2D50136D0E7AA461F2C11D8C2
:102A9000013F0A21300000F04DFC651C30310CABC9
:102AA00019550A21300000F045FC092E0ED9060008
:102AB0002C00EBE755461F2C0CD87B1E002F09D0AD
:102AC0000CAA302111551F000134F4E72B005546A4
:102AD0001C00F0E71F2C03D80CAB2E221A55013432
:102AE0001F2C10D80A21280000F0FCFB661C303196
:102AF0000CAB19550A21280000F0F4FB051E01D08B
:102B00003400EDE734000323229A1340012B1CD03C
:102B10001F2C06D84346002B32D00CAB2D221A5561
:102B20000134229B0393219B029301940CAB0093ED
:102B30004B465A4607990698FFF7C8FA15B0F0BCFD
:102B4000BB46B246A946A046F0BD219B002B13D040
:102B50004346002B02D10C3313420FD0219B013B83
:102B60002193190003E00CAB30221A5501348C423A
:102B7000CED21F2CF7D9CBE72199F8E72199F6E7B8
:102B8000229B5B0704D50CAB2B221A550134C8E7F6
:102B9000229B1B07C5D50CAB20221A550134C0E778
:102BA000FFFFEFFFFFFFEF7F65CDCD4165CDCDC1CD
:102BB0009453001098530010885300109053001045
:102BC000905A00100000E03FF0B5DE4657464E46F2
:102BD0004546E0B593B08246884693461193002956
:102BE00000D10DE300255646119B1878002800D12E
:102BF00009E3252809D06C1C5B462A004146B047F2
:102C0000119B013311932500EEE701331193002747
:102C100020E001231F4301321192012418E0022316
:102C20001F4301321192012412E004231F43013299
:102C3000119201240CE008231F4301321192012458
:102C400006E010231F4301321192012400E000240A
:102C5000002C09D0119A1378203BD9B21029F6D84C
:102C60008B00C849CB589F46119B1A781300303B04
:102C7000DBB2092B10D92A2A13D00B94119B1A7896
:102C80002E2A1ED0119A1378683BD9B2122959D82E
:102C90008B00BD49CB589F4611A8FFF705FA0B9052
:102CA000ECE71C9B1A1D1C921B68002B04DB0B938A
:102CB000119B01331193E1E7022217435B420B930F
:102CC000F6E78022D20017435A1C11925A7813005B
:102CD000303BDBB2092B0BD92A2AD3D11C9B1A1DFE
:102CE0001C921C68002C08DB119B01331193C9E76F
:102CF00011A8FFF7D9F90400C4E70024F4E7802302
:102D00005B003B43511C119151786C2901D01F008D
:102D100018E0C0239B001F430232119212E080236F
:102D20003B43511C11915178682901D01F0009E0E3
:102D3000C0231F430232119204E080235B001F4333
:102D400001321192119B1878672818D8252800D2D3
:102D50004CE20300253BDAB2422A00D946E2930056
:102D60008A4AD3589F4680239B001F430132119209
:102D7000E8E780235B001F4301321192E2E77828E5
:102D800000D933E2692800D230E20200693AD2B2B7
:102D9000012393407E4A134211D11A0600D500E266
:102DA0005B0500D422E21C9B1A1D1C921B689A46EC
:102DB000002C00D0B2E10122524253468EE16F282E
:102DC0000ED006D858283DD0622804D102239C4654
:102DD00008E0782839D010239F43063B9C4601E049
:102DE00008239C46582833D0692803D0642801D092
:102DF0000C2297437A0501D50122974369282AD0EE
:102E0000642828D0BA0500D59FE0FA0500D5C1E0B6
:102E10007A0600D4D3E01C9A111D1C911168FF2280
:102E20000A4005970B9B0493039463460293002387
:102E3000019300925B462A0041463000FFF725FAD5
:102E4000050027E010239C46CCE710239C46C9E7E9
:102E500020221743C8E7BA0520D4FA0550D47A06D1
:102E600066D51C9A111D1C911168FF220A40D017CB
:102E70001118414005970B9B0493039463460293FA
:102E8000D20F019200915B462A0041463000FFF7C5
:102E9000FCF90500119B01331193A5E61C9A07323A
:102EA00007218A43110008311C9111685368994623
:102EB000DB170C930D930C9A0D9B100048400E905D
:102EC0004A4653400F930E980F990C9A0D9B801A07
:102ED00099410E900F9108970B9B079306946346B8
:102EE0000493002305934B46DA0F02920090019160
:102EF0005B462A0041463000FFF725FA0500C9E786
:102F00001C9A111D1C911268D01711184140059789
:102F10000B9B0493039463460293D20F019200919A
:102F20005B462A0041463000FFF7AFF90500B1E7E4
:102F30003A0605D51C9A111D1C910023D25E96E716
:102F40001C9A111D1C91126891E71C9A07320721E7
:102F50008A43110008311C9108970B9B0793069434
:102F6000634604930023059302935368126800920A
:102F700001935B462A0041463000FFF7E4F9050063
:102F800088E7C046F45800103859001084590010E2
:102F9000419000001C9A111D1C9105970B9B0493F6
:102FA00003946346029300230193136800935B46E6
:102FB0002A0041463000FFF768F905006AE73A0643
:102FC00006D51C9A111D1C9112681204120C28E7D8
:102FD0001C9A111D1C91126823E7462819D01C9BCE
:102FE0000733072293431A0008321C9204970B9A66
:102FF000039202941A685B68009201935B462A0070
:1030000041463000FFF736FC0500119B0133119358
:10301000EAE520231F43E2E7672801D0472802D1D1
:1030200080231B011F43452801D0472801D12023BD
:103030001F431C9B0733072293431A0008321C923C
:1030400004970B9A039202941A685B6800920193AA
:103050005B462A0041463000FFF7FCF90500119B52
:1030600001331193C0E502231A003A4091463B42D6
:103070001DD001241C9B1A1D1C926F1C18785B46E6
:103080002A004146B0474B46002B14D1119B013317
:1030900011933D00A8E5571C5B4641462020B047F0
:1030A00023003A005C1C9D42F5D81500E2E701239D
:1030B0002A000B9DF6E73A00B1460B9E06E0571C2E
:1030C0005B4641462020C8472C003A00651CA642BA
:1030D000F5D817004E46D9E701330A0019780029C0
:1030E00002D0511E002AF7D152469B1A8022D200EC
:1030F000390011408946174202D0A34200D923006B
:1031000002221100394010913A4209D02A002500CC
:1031100057469A4633004E46994621E022004CE637
:103120002A004546A04606E0541C5B4629002020A4
:10313000B0473B0022005F1C0B999942F4D84446EB
:10314000A8463B00250057469A4633004E4699460E
:1031500006E01D000137541C5B464146C84722006B
:103160003878002804D0002EF4D06B1E002DF0D14A
:10317000150053464E46109A002A03D1119B013385
:10318000119331E50B9F2A0006E0551C5B46414632
:103190002020B04723002A005C1C9F42F5D8150070
:1031A000ECE721233B431C9A111D1C9112680593E7
:1031B000082304930394083302930023019300929D
:1031C0005B462A0041463000FFF75FF80500119B7F
:1031D0000133119308E56C1C5B462A00414625200B
:1031E000B047119B013311932500FDE46C1C5B4635
:1031F0002A004146B047119B013311932500F3E4A7
:103200000A4B9A46EEE4B2465D450DD35B465A1E24
:103210005B4641460020D047280013B0F0BCBB46B7
:10322000B246A946A046F0BD2A00F1E79920001059
:103230000EB430B584B0010007AC08CC0394012271
:10324000054D009452422800FFF7BEFC04B030BC8C
:1032500008BC03B01847C0469120001000B585B0E7
:103260000290039101210448009313004A4202A9ED
:10327000FFF7AAFC05B000BD9B2000100148042107
:10328000014B1847B0020020AD32001010B501000C
:1032900018231B8814221088984710BD10B5010010
:1032A00018231B8816221088984710BDF0B5C64613
:1032B00000B507000E0000250123984600E0013507
:1032C000B5420AD2AC003C192068FFF7DFFF20604E
:1032D0000028F4D100239846F1E7404680BCB84668
:1032E000F0BD0000124A936F9B0815D29066D1661C
:1032F000002905D0FFE7FFE7FFE7516F106F704728
:1033000004B580210906C2175140002800D0C843E7
:1033100001F0F2FB002104BDF0B5146E556E576F3D
:10332000166FFFF7E3FF1466556657671667F0BD23
:10333000000000D0114A936F9B0813D210665166AB
:10334000002905D0FFE7FFE7FFE7516F106F7047D7
:1033500004B5002801D00020C04301F0CDFB0021BE
:1033600004BDC046F0B5146E556E576F166FFFF76B
:10337000E5FF1466556657671667F0BD000000D07C
:1033800094464A4A926F9208624601D228E0C046AB
:10339000F0B5464E346E756E776F366F00F020F8DC
:1033A0009446424A14665566576716676246F0BDF2
:1033B00094463E4A926F9208624601D254E0C0465B
:1033C000F0B53A4E346E756E776F366F00F04CF88C
:1033D0009446364A14665566576716676246F0BDCE
:1033E000002B24DB11D000293EDA00B5C94340424E
:1033F00000D1013100F038F8C943404200D1013119
:10340000DB43524200D1013300BD002AEBD100283A
:1034100001D1002905D00020C90FC90701D1C0433F
:10342000410800B501F060FB0022002300BD00B59B
:1034300000290ADBDB43524200D1013300F014F8CB
:10344000C943404200D1013100BDC943404200D1CF
:103450000131DB43524200D1013300F005F8DB4378
:10346000524200D1013300BD002923D1002B18D1D5
:10347000002A0CD0BC460D4F38667A660021002326
:10348000FFE7FFE7FFE77A6F386F6746704700286E
:1034900001D00748010000B501F026FB00220023FF
:1034A00000BD02000B00002000217047000000D08A
:1034B000FFFFFFFF002B00D0BFE0130C28D1002A34
:1034C000E7D080B4114F39667A66FFE7FFE730B482
:1034D000040C7B6F396F1B0423433B667A66FFE75E
:1034E000FFE7FFE7C04684B27B6F3D6F1B042343B9
:1034F0003B667A66FFE7FFE7C04600232C042D0CED
:103500007A6F386F00196941B0BC7047000000D075
:10351000F0B594460025140E01D112020835140F9F
:1035200001D112010435940F01D192000235D40F5C
:1035300001D152000135D40B0134254F7C66254C56
:103540003C660E0C93B2FFE7FFE7FFE73C6F664374
:10355000360C7703BE467343DF0B5B04C01AB941D8
:10356000130C7343DB18C91ACE086643360CB644F5
:1035700093B273431F0F1B01C01AB941130C73435D
:103580001F0B1B05C01AB941860D8F023E436643CF
:10359000360C092D24DB520A7243801A7703460A3F
:1035A0006643360C16235B1BDE40DF40BF196446C2
:1035B0006643821B7046043506330100D940A8409B
:1035C000C01900D30131A24206D20023F0BD000091
:1035D000000000D0FFFFFFFF121B0130F3D3F1E723
:1035E00009277F1BFE406446A2B27243801A00D2B4
:1035F0000139220C7243130C1204821A99410B00F8
:103600007046043513370100F940A840801900D3F3
:103610000131002B02D1A2420AD2F0BD013000D309
:103620000131121BFAD2013BF8D1A24200D2F0BD07
:10363000013000D30131121BF7E7F0B51C0C00D0AC
:1036400080E00CB400251C0A04D11B02160E334383
:10365000120208351C0B04D11B01160F3343120153
:1036600004359C0B04D19B00960F33439200023526
:10367000DC0B02D192185B4101351C0097186441A4
:103680000134464F7C66464C3C660E0CFFE7FFE774
:10369000FFE7C0463C6F6643360C7703BE4697B2E1
:1036A0007743C01B00D20139C01B00D201399FB241
:1036B0007743C91BC91B170C77437E04FF0B801B84
:1036C000B941CE086643360C0C2D33DBB644120BE1
:1036D0001F053A431B0B97B27743C01B00D2013939
:1036E0009FB27743C91B170C77433E043F0C801BE6
:1036F000B941860D8F023E43664329277F1BFE405A
:103700000C3D7746AF40BF1930BCA2B2ABB272439A
:103710007343801A9941220C7243130C1204801ACD
:10372000994102000B000137001BA941F9D2781E14
:103730000021F0BD0C277F1BFE4077467F0BAF407A
:10374000FF19E0E700245D1C07D0144F7D66396641
:10375000FFE7FFE7FFE7FFE73C6F95B29EB26543E7
:103760006643401BB141150C1E0C6543664336048D
:103770002F0C3E432D04401BB141994204D202005C
:103780000B0020000021F0BD01D19042F7D3801A38
:10379000994101349942F2D3F6E70000000000D0CD
:1037A000FFFFFFFF48404140484018B4134B5B689F
:1037B000019308BD18B4114B1B68019308BD9446D2
:1037C0000F4A926F920805D2624618B40B4BDB6821
:1037D000019308BD0A4AF0B5146E556E576F166F07
:1037E0006246FFF7F2FF064A14665566576716678A
:1037F000F0BD18B4014B9B68019308BD580B002025
:10380000000000D0FFB550404240504059404B406E
:10381000594000E0FFB5154F4C00640D03D0BC4289
:1038200004D10C0314D80020090D09055C00640DB7
:1038300003D0BC4204D11C030AD800221B0D1B0577
:1038400001264B4009D44B4003D58B4200D1824224
:10385000FFBD9942FCD19042FFBD0B43DB180343EF
:103860001343F5D0C9434918FFBD0000FF0700000E
:1038700000B5FFF7CFFF804100BDC04600B5FFF7A0
:10388000C9FF01D9002000BD012000BD00B5FFF730
:10389000B9FF01D9002000BD012000BD00B5FFF730
:1038A000B1FF804100BD012040054A00121804D834
:1038B0005A00121801D800207047012070470020DC
:1038C000704700000021002805D17047C11748400B
:1038D000401AFAD0C90713B5064B1B6898470CBCB1
:1038E000441CA2401005120B0349091B090519438A
:1038F000114310BD580C00201F04000010B54C00EF
:10390000620D8023D218DB00D21A5B057E2A10DDFF
:103910009E3A13DACC170903490819435242D140A1
:10392000640001341532202A05DAD0400843604390
:1039300010BD002010BD0846604310BDC80FC01860
:10394000013810BD18B4024B5B6A019308BD00003A
:10395000580B002010B50148FEF782FBA053001061
:1039600070B513231C78012C12D0012C12DC214BD2
:10397000214A93642148FFF789FC214B186070BDF0
:1039800020491D4A9800815001331F2BF8D9ECE7DC
:103990000023FAE71C48FFF781FC05001B48FFF7EE
:1039A0007DFC023803789B007F2B09DD12488022C2
:1039B000290000F0E7F8022C08D0022CDADCD6E768
:1039C000134B144A14483221FEF7B2FA134B1A88EB
:1039D000B5231B029A4209D1114B1A88114B9A4206
:1039E00004D1114B1A88114B9A42E6D00020FEF701
:1039F00037FBC046313A0010580B00204C33000012
:103A0000580C002055390010534400005346000064
:103A1000B8530010E05A00100C5400105438000045
:103A2000D8380000494600009C3800005946000084
:103A300007B56046002800D100BE01880A0A02309E
:103A4000DF2AFAD1C9B2820804D302884088000470
:103A5000104300E00068024A5050039007BD000088
:103A6000580B002051434343C9188C46110C83B2B4
:103A70004B4310B4040C614392B280B25043624392
:103A80001C041B0C001910BC59411304120CC01863
:103A9000514161447047000010B50148FEF7E0FA5B
:103AA000D452001070B513231E781848FFF7F6FBA8
:103AB0000500012E11D0012E09DDAB1E1B789B00E5
:103AC0007F2B1DDD12488022290000F05BF8114891
:103AD000FFF7DCFB104B186070BD0D485422290025
:103AE00000F050F8002300E001331F2BE3D8084A10
:103AF0009C00A258002AF7D10849054AA150F3E7D3
:103B0000074B084A08484221FEF712FA53460000C4
:103B10005C0C00204C330000580C0020993A001037
:103B20005C540010F45A00109054001010B5002896
:103B300004D04018034B984200D810BD0248FEF74D
:103B40008FFAC04600000420E054001070B5050054
:103B500000F01CFB04002900FFF7E8FF200070BD07
:103B600010B500F01DFB10BD01480421014B1847A2
:103B7000C0020020AD320010014B1B681847000046
:103B8000C0020020014B5B6818470000C002002003
:103B900010B50300080011001B68984710BD000015
:103BA000F8B507000D001600437D002B02D000245D
:103BB00000200CE003681100280098472DE03B7DB1
:103BC00010E03B68154802219847601C0134B4425C
:103BD00014DA002CF3DD2B19013B1B780D3B5A4204
:103BE0005341DBB22A5D0A2AF0D1002BEED1A0426C
:103BF000E7DA3B68211A28189847E2E7B04203DA6F
:103C00003B68311A28189847002E06DDAD19013D92
:103C10002B780D3B5A4253413B75F8BD385B001081
:103C200070B505000368002B16D00C4B1C6805E02E
:103C3000290004C92000FFF7B3FF2469002C09D034
:103C40002368002BF9D0064B1B68002BF0D0A34251
:103C5000F3D1EDE700232B6070BDC046200B0020A0
:103C6000280B002070B505000C000B68802B05D0D8
:103C700023685A1C2260E418257170BD0800FFF704
:103C8000CFFFF5E710B5002B02DB0260436010BDEB
:103C9000024B034A03483F21FEF74AF9884D0010C2
:103CA0003C5B0010A44D001010B582B00400FDF77D
:103CB000F5FC02000B006846FFF7E4FF009A019B49
:103CC00022606360200002B010BD000070B582B0B9
:103CD000060014001D00FA2292000023069800211D
:103CE000FFF7C0FE02000B0012196B41002B09DB2D
:103CF0006846FFF7C7FF009A019B3260736030008F
:103D000002B070BD01225242004BF1E7FFFFFF7F7E
:103D100030B585B004000D0002A8FFF7C5FF029A78
:103D2000039B00952000FFF7D1FF200005B030BDB8
:103D300000B583B0FA2189006846FFF7E9FF009AD1
:103D4000019B024800F0E0FE03B000BD180800200F
:103D500010B5024800F0C0FE10BDC0461808002093
:103D6000F0B5CE46474680B583B006000D009046BC
:103D70001C00FFF7DDFF81466B1C05D0002C08D02E
:103D8000194F1A4B1C6807E0300000F02FFD0500AA
:103D9000F4E7174FF5E72469002C17D02368002BB0
:103DA000F9D0144B1B68002B01D0A342F3D12A0099
:103DB00031002000B8474346002BECD06B46D91D9C
:103DC0000A230B7001222000B847E4E74B46002B82
:103DD00007D16B1E9D41E8B203B0C0BCB946B046E6
:103DE000F0BDFFF7B5FFF4E7913B0010200B00207A
:103DF000A13B0010280B002010B582B004006B46D8
:103E0000D81D0470002300220121FFF7A9FF200024
:103E100002B010BD10B5064B1C6801E0984724693C
:103E2000002C03D06368002BF8D1F8E710BDC04622
:103E3000200B002070B5050000F0D8FC0400002322
:103E4000012201002800FFF78BFFFFF7E3FF2000AE
:103E500070BD000070B5A2B004000E00FFF768FF4F
:103E60000500002301930A483300220001A9FFF74F
:103E7000F5F9040001A8FFF7D3FEFFF7CBFF002DF3
:103E800002D1200022B070BDFFF762FFF9E7C04603
:103E9000653C00100FB400B583B004A901C90191BD
:103EA000FFF7D8FF03B008BC04B0184700207047E4
:103EB000F0B5DE4657464E464546E0B585B00700AC
:103EC000100098460EAB1B7803930F9D109E3B6825
:103ED0000022DA663B6859603B680132DA660022EC
:103EE000002399460024C3464146029190462BE0A8
:103EF0003A79002A31D001222FE00399002901D01C
:103F000000212EE001212CE03000A84703000443EB
:103F1000E4B2002B06D13A68526BD20602D4002DCF
:103F2000F2D1F6E7002B09D13A6880215158894631
:103F300000291FD1002C2FD1C2451ED0002C33D117
:103F400001229446E0440198D8452DDA029A013ABC
:103F500092464246002ACBD000229202C245CCD0E3
:103F6000002149020A43411C01910078396802434B
:103F70000A61D4E7526D01240EE0039A002ADDD1D4
:103F80000AE03000A84703000443E4B2002B06D146
:103F90003A68526B920502D4002DF2D1F6E7002B5D
:103FA000CCD13A68126EC9E74246002C09D0002BEA
:103FB00011D14B46002B12D0DB0714D44B461B0704
:103FC00015D5039B3B71100005B0F0BCBB46B24653
:103FD000A946A046F0BD01235B421A00F1E7022387
:103FE0005B421A00EDE702235B421A00E9E7022375
:103FF0005B421A00E5E70000F0B5D6464F4646465C
:10400000C0B505000C000520FDF7BEFE06006008E7
:1040100080192100FFF78EF907004300994681447B
:1040200005214846FFF786F980463B1A9A46284BF9
:104030009C4224D8700080192649FFF77BF9441C64
:104040004346023BA34221D32B680022DA6629684B
:104050000B680432534002321A4080235B010B4349
:104060001A602B685246DA612B6842461A624B4648
:104070004F2B11D950214846FFF75CF90DE0700035
:1040800080191549FFF756F9441CD9E7134B144A18
:1040900014485D21FDF74CFF01202A68A023D05071
:1040A0002B681A007C32DB6F5C402404240C8023D4
:1040B0005B0113431C602B680122DA663900300073
:1040C000FFF738F9E0BCBA46B146A846F0BDC04695
:1040D0003F420F008096980040787D0134550010D3
:1040E000545B00105455001010B5114B98421DD070
:1040F0001022104B1A60104B1A60104B9B68140072
:104100009C43231EF9D104710268D46602686624B8
:10411000FF3414600268D3630268936302688833D3
:10412000633CFF3CD450FFF767FF10BD0822E0E777
:10413000D802002000E0004000F0004000C0004035
:1041400030B585B008AC2578002402940194009520
:10415000FFF7AEFE05B030BD0123084A1360084AE0
:104160001360084B9A6801239343FAD1064B01224E
:104170001A60054B1B68DB05FBD5704700E000406B
:1041800000F0004000C0004000C0044010B5034BE8
:104190000100186800F00EF810BDC046F0060020BF
:1041A00010B5034B0100186800F0A8FB10BDC04615
:1041B000F0060020F0B54E464546DE465746E0B5CF
:1041C0000D000B35060085B0162D27D8102900D913
:1041D000DAE000F0D1FA102518230221C74FFB18AE
:1041E0001A005C68083A944200D146E103226368F1
:1041F000A1689343E268CA6091600121E3185A689C
:1042000030000A435A6000F0BFFA2000083005B0C1
:10421000F0BCBB46B246A946A046F0BD07239D436D
:1042200000D5B1E0A94200D9AEE000F0A5FAFC2328
:104230005B009D4200D29AE1690A00D1A8E00429FE
:1042400000D94FE138239846A90988443931CB0079
:10425000082252429446A94FFB189C446346DC68EE
:10426000A44514D0032399460B0061469C4607E001
:10427000E068002A00DBFAE0814200D1FBE00400A4
:104280004A46636893435A1B0F2AF1DD41463A00C0
:104290003C690832944200D1D8E00320636883432C
:1042A000581B0F2800DD66E13A617A610028A4DA24
:1042B0007A68904680229200934200D3E3E0DA08C5
:1042C000580901238340404618438046D300DB1938
:1042D0009A687860E360A2609C60D46001208B10D3
:1042E000984040455CD8434603420AD10323994392
:1042F000434640000431034203D1400004310342ED
:10430000FBD00323B3469C460E00B8460190F00054
:1043100040440100B246CB680BE064465A681F0077
:10432000A243DB68541B0F2C00DDF3E0002C00DB04
:104330000DE19942F1D101239946CA44534608310F
:104340009B07E8D1032205E003680838013E834259
:1043500000D00AE23242F7D14346019A5B689343A8
:1043600042465360019A520001929A4216D8002A9E
:1043700006D113E004229146019ACA4452000192E8
:104380001342F7D05646C2E70C23002033603EE7C5
:1043900080233F22402190469B0059E75E464746D6
:1043A0000322BC68636893439946AB4202D35B1B0C
:1043B0000F2B4EDC23004B440293514B08201B680B
:1043C00010335B19019300F003FA4E4903900B6818
:1043D0008B46013306D08446019B4242013B634435
:1043E000134001933000019900F0D6F90300804694
:1043F000013300D1DDE0029B834200D9D7E0019A6E
:10440000414B944619689A466144039A1960029B8D
:104410000800013A434500D0EAE04346134200D089
:10442000E6E0BB68984663464B441A0001231A43F2
:1044300043465A60354B1868884200D21960344BA5
:104440001868884200D219604446B4E07B689846F8
:1044500044E70122290013431143651961603000CC
:10446000BD606B6000F090F920000830CFE6A268D4
:10447000D0608260C1E6614609E7DC680231A34290
:1044800000D104E7B2E65A0A042A00D888E0142AC8
:1044900000D90FE110005B3082465C32D200082068
:1044A00040428446BA189444624692680B30814672
:1044B000944500D1E5E00800A2466146844602E04A
:1044C0009268914204D04C465068A0439842F7D875
:1044D000D368614654469C466346A260E3609C6094
:1044E000D460FBE6142973D9542900D9EBE06E237C
:1044F0009846290B88446F31CB00A9E6E8020020DA
:104500006C090020E00200203C0900206409002022
:1045100068090020BA4601205146844649190543DE
:1045200050464560856847466046EB605E469D6044
:10453000534639617961204308374860CF603000C5
:104540008F609C5000F020F9504608305FE6BA4674
:1045500001205E465244516801435160BA68300000
:10456000D3609A6000F010F9380008304FE62B0055
:10457000E908083332E66119884601218C460D436B
:104580004146656039617961CA608A60624602436A
:104590004A60E050300000F0F7F82000083036E6BE
:1045A0009A091000393238308246D20077E7BC428F
:1045B00014D0BC68626803239A43531BAA4202D3F7
:1045C0000F2B00DD45E7300000F0DEF800201EE68E
:1045D0005B23984688445C31CB0039E6644B9A46AD
:1045E0001868019B9C46534660441860039B5A1E02
:1045F0005B461B68013371D0434602995B1A5146F2
:104600001B180B600723414640461940029118428F
:1046100040D00398013384465B1A01999844414481
:104620000191634411405B1A1A4011003000934617
:1046300000F0B2F8431C78D04346C01A03005B4434
:104640000193534619680120594419604346019A61
:10465000BB6002435A60BC4200D1EBE64B460F2BD5
:1046600040D907220C3B93436268024005201A435D
:104670006260E218506090600F2B4BD843465A6836
:10468000D8E653469810012383404046184380469D
:10469000786021E7019B039943441340CB1A1A40E9
:1046A00011003000934600F077F8431CC4D100237A
:1046B0009B46C6E7542A18D81A0B10006F326E308A
:1046C0008246D200EBE6AA235B00994218D8DD3B74
:1046D0009846E90B88447831CB00B9E55B46414602
:1046E00019608FE7434658606DE7AA204000824278
:1046F00026D8DA0B1000783277308246D200CEE628
:104700001C4B994226D87C239846A90C88447D31BD
:10471000CB009DE521003000083100F0EFF8534652
:104720001968BB6898465A6884E6019A029B9446C9
:104730004246083B63449B1A019300239B4680E753
:104740000C4882420CD89A0C10007D327C30824694
:10475000D200A4E6FE237E227F2190469B0077E5CF
:10476000FE227E209200824699E643465B68F9E588
:104770003C0900205405000010B5024800F024F860
:1047800010BDC0463809002010B5024800F01EF8E0
:1047900010BDC04638090020002370B5064C050046
:1047A00008002360FDF7A4FB431C00D070BD236804
:1047B000002BFBD02B60F9E7240B0020014B18687D
:1047C0007047C046F00600207047C0467047C0469C
:1047D000802310B55B01082801D1180010BDFFF738
:1047E000EDFF16230360173BF7E7C04610B58307BC
:1047F0000AD00300032102E001330B4205D01A78EE
:10480000002AF9D1181A10BD030019680C4A0D4C82
:104810008A188A4322420FD15968094A04338A18F8
:104820008A43224208D15968054A04338A188A43C8
:104830002242F1D000E001331A78002AFBD1E1E7EF
:10484000FFFEFEFE80808080F0B5C646060000B503
:1048500008200D00FFF7BCFF04003000FFF78CFFBD
:10486000234B210098469B685F6803239F433800D1
:104870001138401B0019FEF75DFD451E6543AC4233
:1048800008DC00213000FFF787FF43469B68DB19F7
:10489000984206D03000FFF777FF002080BCB84672
:1048A000F0BD30006942FFF777FF01300ED00122E2
:1048B00043467F1B9B6817430E4A5F6013683000B6
:1048C0005B1B1360FFF760FF0120E7E7002130006A
:1048D000FFF762FF43469A68831A0F2BDADD064C16
:1048E00004492468001B086001210B435360D1E791
:1048F000E80200203C090020E0020020F8B5CE4686
:10490000474605000C0080B5002957D0FFF734FF5B
:10491000012321009C4608394868624603000324AD
:104920009343CF187A68654EA243B468BC4200D165
:1049300070E0BC18A14664467A60044221D1086840
:10494000091A1B1888688046484640682040340091
:1049500008348146A04551D04046CC68C460A06070
:104960004846002811D19B185548BA68824200D1A8
:104970007FE0F868D060826001221A434A60CB5021
:1049800007E0484640682042EDD062461A434A603C
:104990003B6080229200934214D2DA085809012326
:1049A0008340706803437360D3009B199A68CB609F
:1049B0008A609960D1602800FFF7E6FEC0BCB94666
:1049C000B046F8BD5C0A042C3DD89C09200039345F
:1049D0003830E40034192268083C0327944203D19C
:1049E00040E09268944203D05068B8439842F8D8A7
:1049F000D468CC608A60A160D160DCE7002858D11F
:104A0000B868D218FB68C3609860634613434B6074
:104A10008A50D0E79A186346034206D10B68C91A38
:104A20008868D218CB68C3609860012313434B6039
:104A3000244BB1601B689342BDD8234B28001968F2
:104A4000FFF702FFB7E7142C07D9542C1AD81C0B18
:104A500020006F346E30E400BCE720005C345B3033
:104A6000E400B7E70123801083407068034373605C
:104A7000BFE7D1609160CA608A6001221A434A6030
:104A8000CB5098E7AA225200944205D8DC0B2000B4
:104A900078347730E4009DE70C4A944205D89C0CAA
:104AA00020007D347C30E40094E7FE247E20A400C6
:104AB00090E762461A434A603B607CE7E8020020C8
:104AC000F0020020E40200206C09002054050000E0
:104AD000F8B5C0460000000001B40248844601BC9D
:104AE000604700BFC901002001B40248844601BCF0
:104AF000604700BF1502002001B40248844601BC93
:104B0000604700BF1502002001B40248844601BC82
:084B1000604700BF9501002081
:104B18000D583A205B0000005D2020593A205B00C8
:104B28005D20202020000000583A20253464000031
:104B3800593A20253464000030783163203D3D2007
:104B4800282A696E7374293E3E31317500000000D1
:104B5800433A2F55736572732F6B6172656E2F2EF2
:104B68007069636F2D73646B2F73646B2F312E35EF
:104B78002E312F7372632F7270325F636F6D6D6F9A
:104B88006E2F68617264776172655F6972712F69EF
:104B980072712E630000000064656C7461203E3DF4
:104BA800202D323034382026262064656C7461202C
:104BB8003C3D203230343620262620212864656C7E
:104BC8007461202620312900212864656C746120D5
:104BD8003E3E20313175290063757272656E74200E
:104BE8003D3D205F5F756E68616E646C65645F75DE
:104BF8007365725F697271207C7C2063757272655F
:104C08006E74203D3D2068616E646C657200000022
:104C180021657863657074696F6E207C7C20657887
:104C280063657074696F6E203D3D206E756D202B35
:104C380020565441424C455F46495253545F4952AD
:104C48005100000066616C736500000069735F7352
:104C580068617265645F6972715F7261775F6861CC
:104C68006E646C657228736C6F745F68616E646CD7
:104C780065722900657863657074696F6E0000005D
:104C8800666F756E64000000746F74616C000000DC
:104C9800433A2F55736572732F6B6172656E2F2EB1
:104CA8007069636F2D73646B2F73646B2F312E35AE
:104CB8002E312F7372632F636F6D6D6F6E2F706956
:104CC800636F5F73796E632F6D757465782E6300FB
:104CD8006D74782D3E636F72652E7370696E5F6CAC
:104CE8006F636B006C6F636B5F69735F6F776E6583
:104CF800725F69645F76616C6964286D74782D3EB3
:104D08006F776E65722900006D74782D3E656E743C
:104D180065725F636F756E74000000006964202619
:104D280026206964203C3D20706F6F6C2D3E6865BD
:104D380061702D3E6D61785F6E6F64657300000071
:104D4800433A2F55736572732F6B6172656E2F2E00
:104D58007069636F2D73646B2F73646B2F312E35FD
:104D68002E312F7372632F636F6D6D6F6E2F7069A5
:104D7800636F5F74696D652F74696D652E630000DC
:104D880075735F73696E63655F626F6F74203C3D16
:104D980020494E5436345F4D41580000433A2F5550
:104DA800736572732F6B6172656E2F2E7069636FF6
:104DB8002D73646B2F73646B2F312E352E312F7347
:104DC80072632F636F6D6D6F6E2F7069636F5F62B3
:104DD8006173652F696E636C7564652F7069636FA5
:104DE8002F74797065732E680000000069642026AE
:104DF80026206964203C3D20686561702D3E6D6108
:104E0800785F6E6F64657300433A2F5573657273EC
:104E18002F6B6172656E2F2E7069636F2D73646BD3
:104E28002F73646B2F312E352E312F7372632F63DE
:104E38006F6D6D6F6E2F7069636F5F7574696C2F1E
:104E4800696E636C7564652F7069636F2F7574691B
:104E58006C2F70686561702E680000007061726563
:104E68006E745F69640000006368696C645F6964FC
:104E780000000000706172656E745F696420213DF6
:104E8800206368696C645F696400000069640000FD
:104E98006964202626202170685F636F6E746169DB
:104EA8006E735F6E6F646528686561702C20696435
:104EB8002900000021686561702D3E667265655F96
:104EC8007461696C5F6964002170685F636F6E74F8
:104ED80061696E735F6E6F646528706F6F6C2D3ECD
:104EE800686561702C2072657573655F6964290057
:104EF80072656D6F7665645F6964203D3D206E65FF
:104F080078745F696400000063616C6C6261636B54
:104F180000000000706F6F6C2D3E616C61726D5FF8
:104F2800696E5F70726F6772657373203D3D206DA7
:104F3800616B655F7075626C69635F696428696439
:104F48005F686967682C206E6578745F69642900FA
:104F580064656661756C745F616C61726D5F706FBA
:104F68006F6C5F696E697469616C697A6564282918
:104F780000000000616C61726D5F696420213D2052
:104F8800706F6F6C2D3E616C61726D5F696E5F70E2
:104F9800726F6772657373007263000041747465A1
:104FA8006D7074656420746F20736C65657020691A
:104FB8006E73696465206F6620616E20657863652D
:104FC8007074696F6E2068616E646C65723B2075E1
:104FD800736520627573795F7761697420696620EB
:104FE800796F75206D7573740000000048617264F4
:104FF8007761726520616C61726D20256420616C37
:10500800726561647920636C61696D656400000094
:1050180074696D65725F68772D3E696E74732026BA
:10502800203175203C3C20616C61726D5F6E756D3E
:1050380000000000433A2F55736572732F6B61723D
:10504800656E2F2E7069636F2D73646B2F73646B9D
:105058002F312E352E312F7372632F7270325F63AA
:105068006F6D6D6F6E2F68617264776172655F74C2
:10507800696D65722F74696D65722E63000000009A
:10508800726F6F745F696400433A2F55736572736A
:105098002F6B6172656E2F2E7069636F2D73646B51
:1050A8002F73646B2F312E352E312F7372632F635C
:1050B8006F6D6D6F6E2F7069636F5F7574696C2F9C
:1050C80070686561702E63002170685F6765745F42
:1050D8006E6F646528686561702C20726F6F745FED
:1050E8006964292D3E7369626C696E67000000006F
:1050F8002170685F6765745F6E6F646528686561B5
:10510800702C20726F6F745F6964292D3E70617214
:10511800656E74006E65775F7375625F747265653E
:1051280020213D20686561702D3E726F6F745F6944
:10513800640000007372635F66726571203E3D20F3
:105148006672657100000000433A2F5573657273EB
:105158002F6B6172656E2F2E7069636F2D73646B90
:105168002F73646B2F312E352E312F7372632F728C
:1051780070325F636F6D6D6F6E2F686172647761F7
:1051880072655F636C6F636B732F636C6F636B73B4
:105198002E63000076636F5F66726571203E3D2066
:1051A800285049434F5F504C4C5F56434F5F4D4921
:1051B8004E5F465245515F4B485A202A204B485A69
:1051C800292026262076636F5F66726571203C3D34
:1051D80020285049434F5F504C4C5F56434F5F4D1A
:1051E80041585F465245515F4B485A202A204B4848
:1051F8005A290000433A2F55736572732F6B6172F9
:10520800656E2F2E7069636F2D73646B2F73646BDB
:105218002F312E352E312F7372632F7270325F63E8
:105228006F6D6D6F6E2F68617264776172655F7004
:105238006C6C2F706C6C2E630000000066626469F1
:1052480076203E3D20313620262620666264697627
:10525800203C3D203332300028706F73745F6469DE
:105268007631203E3D203120262620706F73745FF2
:1052780064697631203C3D20372920262620287075
:105288006F73745F64697632203E3D203120262694
:1052980020706F73745F64697632203C3D20372933
:1052A800000000007265665F66726571203C3D20F3
:1052B8002876636F5F66726571202F20313629006A
:1052C8002C2066756E6374696F6E3A2000000000CA
:1052D800617373657274696F6E202225732220666C
:1052E80061696C65643A2066696C652022257322C1
:1052F8002C206C696E65202564257325730A0000CF
:1053080031203D3D202875696E747074725F742970
:105318006C2D3E7370696E5F6C6F636B00000000EC
:10532800433A2F55736572732F6B6172656E2F2E1A
:105338007069636F2D73646B2F73646B2F312E3517
:105348002E312F7372632F7270325F636F6D6D6FC2
:105358006E2F7069636F5F72756E74696D652F72F9
:10536800756E74696D652E63000000000A2A2A2A8A
:105378002050414E4943202A2A2A0A000A000000E8
:10538800666E692B00000000666E69006E616E0033
:10539800666E692D000000006D697373696E672081
:1053A800646F75626C652066756E6374696F6E00F4
:1053B8002A282875696E74385F74202A29726F6DDF
:1053C8005F646174615F6C6F6F6B757028726F6D6D
:1053D8005F7461626C655F636F6465282753272C6F
:1053E8002027462729292D3229202A2034203E3DEE
:1053F8002053465F5441424C455F56325F53495AE9
:1054080045000000433A2F55736572732F6B617224
:10541800656E2F2E7069636F2D73646B2F73646BC9
:105428002F312E352E312F7372632F7270325F63D6
:105438006F6D6D6F6E2F7069636F5F646F75626CEF
:10544800652F646F75626C655F696E69745F726FF2
:105458006D2E63002A282875696E74385F74202AB7
:1054680029726F6D5F7461626C652D3229202A2064
:1054780034203E3D2053465F5441424C455F5632EE
:105488005F53495A45000000433A2F5573657273BC
:105498002F6B6172656E2F2E7069636F2D73646B4D
:1054A8002F73646B2F312E352E312F7372632F7249
:1054B80070325F636F6D6D6F6E2F7069636F5F66BB
:1054C8006C6F61742F666C6F61745F696E69745F6D
:1054D800726F6D2E630000004F7574206F66206D2B
:1054E800656D6F72790000004465627567000000A1
:1054F800626F6F74325F7732357130383000000078
:10550800302E3100312E352E310000007069636F66
:105518005F7700004A6F79737469636B5F310000CD
:105528004170722031342032303235007364615F4B
:1055380074785F686F6C645F636F756E74203C3D50
:10554800206C636E74202D2032000000433A2F55E2
:10555800736572732F6B6172656E2F2E7069636F3E
:105568002D73646B2F73646B2F312E352E312F738F
:1055780072632F7270325F636F6D6D6F6E2F68612B
:105588007264776172655F6932632F6932632E6373
:105598000000000000000000000000007814121154
:1055A800121478007F49494949497F007E414141A9
:1055B800414141007F41414141417E007F49494984
:1055C800494949007F090909090101007F41414111
:1055D800515173007F08080808087F000000007F09
:1055E800000000002141413F01010100007F08083F
:1055F800142241007F404040404040007F020408A0
:1056080004027F007F02040810207F003E414141D0
:1056180041413E007F11111111110E003E414149D7
:1056280051617E007F11111131510E0046494949DF
:10563800493000000101017F010101003F40404065
:1056480040403F000F10204020100F007F2010081E
:1056580010207F0000412214142241000102047826
:105668000402010041615945434100003E4141495E
:1056780041413E000000427F400000003049494956
:105688004946000049494949494936003F202078A0
:10569800202000004F494949493000003F48484808
:1056A8004848300001010161310D0300364949497C
:1056B800494936000609090909097F00AE2000405A
:1056C800A1A83FC8D300DA12D580D9F1DB3081FF19
:1056D800A4A68D142EAF00006972715F6164645FC7
:1056E8007461696C5F746F5F667265655F6C69731E
:1056F80074000000696E736572745F6272616E6334
:10570800685F616E645F6C696E6B00006972715FDF
:1057180072656D6F76655F68616E646C65720000B6
:105728006D616B655F6272616E6368007265736F4D
:105738006C76655F6272616E636800006972715FA2
:105748007365745F6578636C75736976655F6861A6
:105758006E646C65720000006D757465785F6578BD
:10576800697400006D757465785F656E7465725F45
:10577800626C6F636B5F756E74696C00616C6172EB
:105788006D5F706F6F6C5F63616E63656C5F616C9A
:1057980061726D00616C61726D5F706F6F6C5F67D5
:1057A80065745F64656661756C7400006765745F35
:1057B800656E7472795F69645F6869676800000084
:1057C80070685F667265655F6E6F646500000000F3
:1057D80070685F6164645F6368696C645F6E6F645E
:1057E8006500000070685F696E736572745F6E6F44
:1057F8006465000070685F6765745F6E6F6465005C
:105808006164645F616C61726D5F756E6465725F1F
:105818006C6F636B000000007570646174655F7580
:10582800735F73696E63655F626F6F740000000079
:10583800616C61726D5F706F6F6C5F616C61726DCE
:105848005F63616C6C6261636B0000006765745F25
:10585800656E7472790000006861726477617265C0
:105868005F616C61726D5F7365745F7461726765A7
:105878007400000070685F72656D6F76655F616EB9
:10588800645F667265655F6E6F64650070685F72FD
:10589800656D6F76655F616E795F6865616400004C
:1058A80070685F6164645F6368696C645F6E6F648D
:1058B8006500000070685F6765745F6E6F646500FF
:1058C800636C6F636B5F636F6E66696775726500A3
:1058D800706C6C5F696E69740000000072756E749C
:1058E800696D655F696E697400000000362C0010F0
:1058F8004E2C00104E2C0010422C00104E2C001084
:105908004E2C00104E2C00104E2C00104E2C001067
:105918004E2C00104E2C00102A2C00104E2C00107B
:105928001E2C00104E2C00104E2C0010122C0010B3
:105938001E2D0010442D0010662D0010442D00105F
:10594800FE2C0010442D0010442D0010442D001092
:10595800442D0010442D0010442D0010442D00103B
:105968003A2D0010442D0010442D0010442D001035
:10597800442D0010442D0010722D0010D631001057
:10598800EC310010EC310010EC310010EC3100105B
:10599800EC310010EC310010EC310010EC3100104B
:1059A800EC310010EC310010EC310010EC3100103B
:1059B800EC310010EC310010EC310010EC3100102B
:1059C800EC310010EC310010EC310010EC3100101B
:1059D800EC310010EC310010EC310010EC3100100B
:1059E800EC310010EC310010EC310010EC310010FB
:1059F800EC310010EC310010EC31001018300010C0
:105A0800DA2F001018300010EC310010EC310010C3
:105A1800EC310010EC310010EC310010EC310010CA
:105A2800EC310010EC310010EC310010EC310010BA
:105A3800EC310010EC310010EC310010EC310010AA
:105A4800EC310010EC310010BE2D0010EC310010CC
:105A5800EC310010EC310010EC310010EC3100108A
:105A6800EC310010EC310010EC310010EC3100107A
:105A7800BE2D001066300010BE2D0010183000102A
:105A8800DA2F001018300010000000000000F03F6E
:105A98000000000000002440000000000000594001
:105AA8000000000000408F40000000000088C34054
:105AB80000000000006AF8400000000080842E41C9
:105AC80000000000D01263410000000084D7974115
